:020000040800F2
:1000000090050020D9010008000000000000000059
:1000100000000000000000000000000000000000E0
:1000200000000000000000000000000000000000D0
:1000300000000000000000000000000000000000C0
:1000400000000000000000000000000000000000B0
:1000500000000000000000000000000000000000A0
:100060000000000000000000000000000000000090
:100070000000000000000000000000000000000080
:10008000000000000000000019020008000000004D
:100090000000000000000000000000000000000060
:1000A0000000000000000000000000000000000050
:1000B0000000000000000000000000000000000040
:1000C0000000000000000000000000000000000030
:1000D0000000000000000000000000000000000020
:1000E0000000000000000000000000000000000010
:1000F0000000000000000000000000000000000000
:1001000000000000000000000000000000000000EF
:1001100000000000000000000000000000000000DF
:1001200000000000000000000000000000000000CF
:1001300000000000000000000000000000000000BF
:1001400000000000000000000000000000000000AF
:10015000000000000000000000000000000000009F
:10016000000000000000000000000000000000008F
:10017000000000000000000000000000000000007F
:10018000000000000000000000000000000000006F
:10019000000000000000000000000000000000005F
:1001A000000000000000000000000000000000004F
:1001B000000000000000000000000000000000003F
:1001C000000000000000000000000000000000002F
:1001D00000000000000000000B484FF000610160CB
:1001E0004FF080504FF00001084A01600430904207
:1001F000FBD14FF000504FF00001054A0160043080
:100200009042FBD10348004708ED00E000280010B1
:10021000005800200917000810B54FF0A0400468EE
:1002200004F0400088B14FF0A040006840F040006A
:100230004FF0A041086000F04BF900F091FA00F097
:1002400005F801F0DDFD01F017FF10BD3A48408AC6
:10025000D0B93A4800693949898901443748016170
:10026000808A401C81B235488182808AFF280BDD5C
:1002700032480069C0F30F213048C181002101617B
:100280008182C0892C4988812C48C0692B49098BFF
:1002900001442A48C161008C401C81B22748018476
:1002A000008CB0F5805F0BDB2448C069C0F30F31D0
:1002B000224841830021C1610184408B1E4948834B
:1002C0001E48806A1D49898C01441C488162808DCA
:1002D000401C81B219488185808DB0F5805F0BDBB1
:1002E0001648806AC0F30F311448C184002181622E
:1002F0008185C08C104988831048006C0F49898F14
:1003000001440E480164B0F84400401C81B20B481F
:10031000A0F84410B0F8440040280CDB0748006CFB
:10032000C0F38F110548C18700210164A0F8441073
:10033000C08F0149C88370473C0000207000002036
:1003400010B55D48C06C40F400505B49C8645A4821
:100350008830006820F04050C1F888000846D0F886
:10036000880040F08050C1F888004FF0A0408068BD
:1003700020F000504FF0A04188600846806840F0AF
:100380008050886041F2883001F09AFF4FF0A04021
:10039000D0F8080120F000504FF0A041C1F808014A
:1003A0000846D0F8080140F080504449086041F206
:1003B000883001F085FF4FF0A040806840F0004099
:1003C0004FF0A041886000BF4FF0A040846804F067
:1003D0000044002CF8D13948006840F000404FF04C
:1003E000A041C1F8080100BF3448046804F000448B
:1003F000002CF9D13248006840F005004FF0A041D0
:10040000C1F808030020C8602E484861C010886108
:100410002D48C8640846006840F00100086008469E
:10042000806840F00100886000BF4FF0A040046881
:1004300004F00104002CF8D0006840F001004FF0F7
:10044000A041086000201D49091D08601D484FF0AB
:10045000A041C1F81401C0101849103108601B48B0
:100460004FF0A041C1F84C010846D0F8080140F017
:100470000100C1F8080100BF10480838046804F002
:100480000104002CF8D0006840F001004FF0A041BA
:10049000C1F800010846406840F040004860084646
:1004A000806840F0080088600846D0F8080140F0F5
:1004B0000800C1F8080110BD0010024008010050FA
:1004C0000803005092244912AB86A058AB06C6918F
:1004D0001B4800681B4908804FF0A040D0F88400FA
:1004E00088814FF0A040D0F8880008834FF0A040EA
:1004F000D0F88C0088844FF0A040D0F880010886A6
:100500004FF0A040D0F8840188874FF0A040D0F889
:100510008801A1F848004FF0A040D0F88C01A1F864
:10052000540008460088084988800648008EC88024
:1005300004488089C8810348B0F854000884704793
:1005400080000050700000203C0000200348806CB8
:1005500040F0080001498864704700000010024024
:100560002B48408A002851D02A48406829490988E8
:1005700008442849486008460089401C088108460C
:100580000089402807DB08464068C0F38F10488088
:100590000020486008811F48406B1E49098E0144B5
:1005A0001C484163008F401C81B21A480187008FAC
:1005B00040280EDB1748406BC0F38F111548418669
:1005C0000021416301874088114908811148408E0C
:1005D0004881104800690F49898901440D4801612B
:1005E000808A401C81B20B488182808A40280DDBC2
:1005F00008480069C0F38F110648C18100210161DC
:100600008182C08902490882002048827047000028
:100610003C0000207000002078B5024694B28DB2F4
:1006200009480A4E306045EA0443301D036000BFAC
:100630000648036803F000400028F9D0034808305A
:1006400000680090009878BD32006000000C024005
:10065000F0B5024694B28DB2084E094F3E6045EAAD
:1006600004433E1D336000BF054E336803F000466F
:10067000002EF9D0024E08363068F0BD5000600000
:10068000000C024008B50146B1F55D7F01DC40F287
:100690007531B1F5C04F14DA1548164B18600A468B
:1006A000181D026000BF1348026802F000400028D5
:1006B000F9D01048083000680090BDF8000080B202
:1006C00008BD0D480B4B18604A10181D026000BF92
:1006D0000848026802F000400028F9D005480830B8
:1006E00000680090BDF800004004000CE8E700003E
:1006F00039006000000C02403901600044F64800F7
:100700000549086046F64800091D086041F6DD50BD
:10071000091D086070470000183401400448006E4D
:1007200040F001000249086602480349086070472A
:1007300000100240418017000C02014010B501F08A
:10074000AFFD00F01BFA01F0F1F8002002494880EB
:1007500008800249088310BD3C0000207001002081
:1007600010B500F017FAF948008820B1F748008862
:10077000401EF6490880F648006800F08000002816
:1007800037D0F248008B401CF04908830846008BA4
:1007900003281FDB002008830420EE490880002086
:1007A0004880FFF7ABFF01F07BFD00F0E7F901F0B7
:1007B000BDF80120E74908830020486208464088C8
:1007C000002806D1C882E248006820F08000E04995
:1007D0000860AEE1DE48006820F08000DC49086077
:1007E000DB483430006840F40040D94934310860B7
:1007F0009FE10020D5490883D648408809286FD258
:10080000DFE800F00513252F384E6FE3FE00FFF7F9
:1008100075FF00F0ADFC0020CE4908804862084614
:10082000008B08B90120488282E1CA48408A10B191
:10083000FFF796FE0AE000F019FA0220C549488049
:100840000020486246F2A810C049486170E100F0FB
:10085000F5FF42F21070BD4908800320BD49488071
:1008600066E1BA48008820B9FFF748FF0420B9497B
:1008700048805DE100F0F8FF40F6CC40B64948837F
:10088000002048850A46B2F92A10508B01F06EFC10
:1008900043F2D400AD4908800520AE49488047E1C5
:1008A000AA480088D8B94FF40050AC49888300208A
:1008B0004883A649888088604FF48030C86001F082
:1008C000EFFC00F05BF901F031F84FF44040A34930
:1008D000C88306209F49488000209C49C88027E1A2
:1008E00022E101F0EBF99948408944F268218842FD
:1008F00005DA96488068801C9449886003E044F2D9
:100900006821924841819148C0689049896800EB0C
:1009100011108E49C8600846C08940F26A31884289
:1009200001DB8A48C1818D48C18B8848C089084451
:1009300000B28A49C8838A480088C98B401A00B22D
:100940008249088200F08EFA8348808B824948836E
:100950008248C08B898D084400B27F4948850A4689
:10096000B2F92A10508B01F001FC7C48B0F91E004E
:1009700042F6AA21884205DD7448808810B901201A
:100980007249888071488088E0B17048C08940F21F
:100990006A31884216DB6D48B0F9100000280EDD80
:1009A0006A488088401C69498880084680880328F6
:1009B00008DD0720674948800120088002E0012007
:1009C0006249888000F09CFFB2E001F077F900F006
:1009D00049FA6148808B604948836048C08B898DA3
:1009E000084400B25C4948850A46B2F92A10508B87
:1009F00001F0BCFB5A4800885449098A401A00E0BB
:100A000055E000B25549C8835048B0F9100000289D
:100A100006DA4E48008A401C00B24C49088243E086
:100A20004A48B0F91000002806DD4848008A401EF8
:100A300000B24649088237E001204449C880084690
:100A4000406960B946F2A81048614248406A401CBB
:100A500050B14048406A401C3E49486204E03B486F
:100A60004069401E394948613C48B0F91C00394989
:100A7000B1F91410884206DA3848808B401C00B265
:100A8000364988830DE03548B0F91C003149B1F989
:100A90001410884205DD3148808B401E00B22F497A
:100AA000888302202B49088000F02AFF40E02D486F
:100AB00001880088401C2B4A108004290CDD00208E
:100AC0001146088028480088B0F57A5F04DA264885
:100AD0000088401C24490880244801880088401C64
:100AE000224A108028290FDD002011460880204866
:100AF000B0F9000040F29B41884205DC1C480088A8
:100B0000401C00B21A4908801A4800881849098810
:100B1000084400B2174908800846B0F9001012488E
:100B2000008801F023FB03E000200A49488000BF51
:100B300000BF0A49B1F9121001F50040C11700EBDE
:100B4000117109110C4A116010BD000070010020E4
:100B5000103401403C00002004010020DE00002091
:100B6000100000201C000020160000201E000020A5
:100B70001A00002018000020080800500020044936
:100B80008880C88008814881C881488288827047EF
:100B9000DE00002010B500F077F800F091F800F0CA
:100BA000AFF810BD0E48C06C40F4A0200C49C864DA
:100BB0004FF400400B4908600A483C38006840F098
:100BC000010008493C39086008010749C863084624
:100BD000006840F48030086040F2D25048617047AD
:100BE000001002403C080050001000502DE9F04178
:100BF000044616461F4600BF1048056905F48030BC
:100C00000028F9D100F026F80C48406940F00100B6
:100C10000A4948612660676000BF0848056905F415
:100C200080300028F9D10548406920F001000349CF
:100C3000486100F005F8BDE8F081000000200240A6
:100C40000348406940F00040014948617047000096
:100C500000200240024803498860034888607047CA
:100C60002301674500200240AB89EFCD044800898D
:100C700000B20449C8820248408900B20883704724
:100C80003C000020DE00002010B50B4BDB8A0B4C33
:100C9000A4881B1BDB0018B2074B1B8B074CE48896
:100CA0001B1BDB0019B243425B1A1AB2024B98803D
:100CB000D9801A8110BD0000DE0000203C00002019
:100CC0000CB50E4989880D4A518149F2CD30114643
:100CD000B1F90410414301911146B1F906104143A5
:100CE0000091009949000091DDE900211144019132
:100CF000BDF80610014AD1810CBD0000DE000020C5
:100D000010B5144AB2F92010B2F90A0000F050FDF3
:100D10000446104AB2F92210B2F90E0000F048FD64
:100D2000204400B20B4948820A46B2F92210528987
:100D3000524210B200F03CFD0446064AB2F92010BF
:100D4000B2F90E0000F034FD204400B2014988825F
:100D500010BD0000DE0000203349098821B10129BF
:100D600017D002295CD13EE02F49C98881B12E49B4
:100D7000898841B94FF4FA712B4A91800121118081
:100D80000021D18004E028498988491E264A9180A3
:100D900047E04FF09041086900F4007020B94FF42B
:100DA000FA71214A91800FE01F49898839B94FF4BF
:100DB000FA711D4A918000211180D18004E01A4906
:100DC0008988491E184A91804FF09041086900F4C3
:100DD000806038B90221144A11800021D1804FF47B
:100DE000FA7191601DE04FF09041086900F4806055
:100DF00088B10D49896829B10B498968491E0A4A99
:100E000091600CE00121084A11800021D1804FF44B
:100E1000FA71918003E04FF4FA71034A916000E0A7
:100E200000BF00BF704700006400002010B50C48F0
:100E3000408B40100A49C8810A46B2F91210B2F933
:100E40000E0000F0B5FC064908800A46B2F91410FD
:100E5000B2F90E0000F0ACFC0149488010BD000062
:100E600004010020F8B54348408B4249498A401AA2
:100E700000B2414908804FF48050088180204881A9
:100E800046F6BE304880084600F0A2F93B48C088CC
:100E9000012807D13849B1F90C0001F0AFF9384900
:100EA000888003E034488089354988803148808BC8
:100EB0003049898A401A00B2324908804FF4805084
:100EC00008818020488146F6BE304880084600F000
:100ED0007FF92A48C088012807D12A49B1F90C00B6
:100EE00001F08CF92649C88003E02648808924490E
:100EF000C8802348008B4010214908820A46B2F975
:100F00001010B2F9100000F053FC06461C4AB2F96A
:100F10000410B2F9040000F04BFC301A85B22846E8
:100F2000FFF7B0FB04B21648B0F90600A04201DD9D
:100F30001348C4801248B0F906006142884203DABF
:100F4000604200B20E49C8800D4AB2F90410B2F9ED
:100F50000600FFF761FB0090BDF802004FF6FF713D
:100F600001EA400006498883BDF8000000B2888588
:100F7000F8BD0000DE0000203401002070010020D8
:100F80000401002044010020002807DD42F6AA21C8
:100F9000884203DA01211A4AD18230E042F6AA21BE
:100FA000884207DB45F25551884203DA0221144A90
:100FB000D18224E045F25551884206DBB0F5004F5E
:100FC00003DA03210E4AD18219E0B0F5004F07DBA6
:100FD0004AF6AA21884203DA0421094AD1820EE0A6
:100FE0004AF6AA21884207DB4DF25551884203DABE
:100FF0000521034AD18202E00621014AD1827047CD
:1010000004010020F8B50446214647F6FF70FFF7BB
:101010001FFB0090BDF8000000B214494882BDF8E3
:10102000020000B288820846808A088142F6AA201F
:10103000204405B2294647F6FF70FFF709FB0090F0
:10104000BDF8020000B209494881A4F52850AA3829
:1010500006B2314647F6FF70FFF7FAFA0090BDF886
:10106000020000B201498881F8BD0000040100209F
:101070001B48C06C40F001001949C8644FF0904013
:10108000006820F47C104FF090410860084600682A
:1010900040F4102008600846406A40F060014FF0BC
:1010A000904041620E48C06C40F004000C49C86496
:1010B0000C48006820F07C400A4908600846006837
:1010C00040F0A84008600648C06C40F02000044989
:1010D000C8640548006820F00300034908607047B1
:1010E00000100240000800480014004810B5194BD9
:1010F000DB88C3F13C0398B2164BDB88C3F137039E
:1011000099B272B6144B5A6A62B6124B1B8823B955
:10111000124B9B880F4C63801BE00E4B1B888B424D
:101120000EDB0C4B1B8883420ADC022A11D94FF0DC
:1011300090435B6943F480734FF09044636108E02F
:101140004FF090435B694FF6FF6423404FF09044AB
:10115000636110BD080000203C000020200000203A
:101160000020024948801920C880704708000020EC
:101170000020054948600881002103484163018738
:1011800001618182704700007000002010B500F0FE
:1011900035FFFFF76DFFFFF705FD00F025FBFFF7BB
:1011A000BDFA00F095FCFFF7CBF8FFF7CFF900F0A0
:1011B000ABFF00F009FB00F0A1FA00F097F800F097
:1011C0000FFF00F0F1FAFFF7CBFF00F073FC10BD4A
:1011D00010B586B090E81E008DE81E00BDF808101E
:1011E000BDF9002051430591BDF91610BDF902204B
:1011F000914209DDBDF80210ADF816100021ADF8DE
:101200001410ADF8021027E0BDF91610BDF9022048
:10121000524291420BDABDF80210494209B2ADF8D0
:1012200016100021ADF81410ADF8021014E0BDF94D
:101230001610002908DBBDF80210BDF81620891A27
:1012400009B2ADF8021007E0BDF80210BDF8162093
:10125000114409B2ADF80210BDF80A10BDF9002022
:1012600051430491049A019911440191BDF906106A
:10127000BDF90220914207DDBDF80220ADF806203D
:101280000021ADF804100FE0BDF90610BDF90220F1
:101290005242914208DABDF8021049420AB2ADF852
:1012A00006200021ADF80410019A0599114405911A
:1012B000BDF81610ADF80C109DE81E0080E81E0069
:1012C00006B010BD10B50748408830B100F022F8D4
:1012D000054800890349888002E000200149888090
:1012E00010BD000020000020300000200020002160
:1012F000054A1180D18005480188054A918111462F
:101300008989014A118170473000002000F80108E6
:101310002000002037490988002969D10A21354A6F
:1013200011803549086800F0010111B10021918058
:1013300002E001212F4A91802E49C988062952D204
:10134000DFE801F0030C1E222B3E2A49898801297F
:1013500003D1284AD1800A21518048E02549498893
:10136000491E244A51801146898811B90021D18033
:1013700005E02049498811B902211E4AD18036E092
:1013800003211C4AD18032E01A49898821B90421FD
:10139000184AD1800A21518029E016494988491EFE
:1013A000144A518011468988012902D10321D18034
:1013B00005E01049498811B905210E4AD18016E08F
:1013C0000C490989491C0B4A1181114609890329D5
:1013D00001DB0021118107490989084A9181002117
:1013E000044AD18003E00021024AD18000BF00BF3F
:1013F000704700003000002010140048200000203A
:1014000072B6BA49098BBA4A5181B849088862B69E
:10141000B749C98881BBB649898961B9B5490968A5
:1014200049F6FF721140B34A11601146096841F450
:101430000041116059E1AE49898901290CD1AD49BA
:10144000096845F6FF721140AA4A11601146096801
:1014500041F48041116048E1A54989890229E9D117
:10146000A4490968C1F30D01A24A11601146096837
:1014700041F40051116038E1FFE79D49C988012915
:101480003BD130B99B490968C1F30C01994A1160FD
:101490002BE101280BD197490968C1F30D01954A49
:1014A00011601146096841F4005111601DE10228E4
:1014B0000BD190490968C1F30E018E4A11601146A3
:1014C000096841F4C04111600FE1032806D1894940
:1014D000096841F46041874A116006E10428A9D1F6
:1014E0008449096849F6FF721140824A1160114629
:1014F000096841F400411160F7E07D49C98802297B
:1015000030D17B49498861B97A49096849F6FF7247
:101510001140784A11601146096841F40041116098
:10152000E3E07349498801290CD17249096845F6FD
:10153000FF7211406F4A11601146096841F4804101
:101540001160D2E06A494988022984D16949096851
:10155000C1F30D01674A11601146096841F4005159
:101560001160C2E06249C988032984D16049498970
:1015700081BB5F49898961B95E49096849F6FF7293
:1015800011405C4A11601146096841F40041116044
:10159000ABE05749898901290CD15649096845F6BC
:1015A000FF721140534A11601146096841F48041AD
:1015B00011609AE04E49898902290AD14D4909688A
:1015C000C1F30D014B4A11601146096841F4005105
:1015D00011608AE0FFE74649498901291ED1464941
:1015E0000988FA290BDD43490968C1F30D01414A15
:1015F00011601146096841F40051116075E03D49E0
:101600000968C1F30C013B4A11603B490988002974
:101610006BD14FF4FA71384A118066E03449498938
:1016200002291ED134490988FA290CDD314909689B
:1016300045F6FF7211402F4A11601146096841F4C6
:101640008041116051E02B490968C1F30C01294A1E
:1016500011602949098831BB4FF4FA71264A11807B
:1016600043E02349498903291ED123490988FA29DE
:101670000CDD2049096849F6FF7211401D4A1160CE
:101680001146096841F4004111602EE019490968CA
:10169000C1F30C01174A11601749098819B94FF4B1
:1016A000FA71154A118020E01149498904291CD199
:1016B00011490988FA290BDD0E490968C1F30C01AB
:1016C0000C4A11601146096841F4604111600CE058
:1016D00008490968C1F30C01064A116006490988E6
:1016E00019B94FF4FA71044A118070473C00002088
:1016F00020000020140800480000002000200149BC
:10170000C880704720000020FFF740FD64200A4990
:10171000088100BF084800890028FBD10BE000F0D9
:101720004DFCFFF7CFFDFFF7E1FCFFF769FE00F08E
:1017300005F800F017F9F2E7200000201748008BA9
:1017400020B9174840881749088002E00020154951
:10175000088014480088E8B11048C08A20B90120E8
:101760000E49C882488018E00E480088012806D13A
:1017700072B642F210700949888262B60DE00948DB
:101780000088022809D172B644F266600349888253
:1017900062B602E000200149488070473C0000200A
:1017A000200000200400002010B5FEF7C7FF10BD88
:1017B00008B5024602FB01F000900098400000903E
:1017C000BDF9020008BD00000548006840F4802013
:1017D0004FF0E021C1F8000100210248017070477C
:1017E00000E100E012E400E00F48006E40F001006C
:1017F0000D4908664FF0904000684FF6FC410843E1
:101800004FF09041086009480068094908430749BA
:1018100008608120074908600749C1F80403C52012
:101820000449083108607047001002400004004875
:101830003F00C03F00030140000001404FF4FA6048
:1018400008490860091D0860091D086046F668001F
:1018500004491C390860091D086041F24440091D13
:101860000860704734340140C82009490860091DE8
:101870000860091D086046F6680005491C390860C3
:10188000091D086041F25550091D086070470000AD
:101890003434014010B500BF1848046904F48030A6
:1018A0000028F9D1FFF7D6F91448006940F45E70BA
:1018B000124908610846406920F47E704861084674
:1018C000406940F0020048610846406940F4FC70FD
:1018D00048610846406940F48030486100BF0748CD
:1018E000046904F480300028F9D10448406920F0EC
:1018F000020002494861FFF7A3F910BD0020024031
:1019000008B50948B0F91E1047F6FF70FEF7A0FEB3
:101910000090BDF8000000B203490884BDF8020041
:1019200000B2488408BD0000DE0000200020094904
:101930008881088240F6D5100749888041F29D6071
:10194000C8800020088105490880888004494860D3
:1019500070470000DE00002054010020100000202D
:101960006001002010B572B64C48048B62B64C483A
:101970000088002871D10120494908800846408824
:1019800018B108464088401E48804548808820B1EC
:1019900043488088401E424988804148C08820B121
:1019A0003F48C088401E3E49C8803D48008920B15C
:1019B0003B480089401E3A49088138488089B0F583
:1019C0006A6F05DA3548808940F2B271884218DAC8
:1019D0003348408818BB0CB1012C20DB022431486D
:1019E000C089E0B901202F49C88172B6FFF752FFC4
:1019F0002C4881890A4600232B48FFF7F7F862B686
:101A00000DE0022C08D12548808940F6C621884285
:101A100002DD2648264908606420214948801F4885
:101A2000408BB0F5616F07DB1D48808838B90CB179
:101A3000022C04DD032402E0642019498880174841
:101A4000808B40F2A251884208DA1548C08840B91C
:101A50000CB1032C05DD042403E019E064201049D7
:101A6000C8800E48C08B40F61401884205DB0B4845
:101A7000C08B40F6EE41884207DD0948008938B93D
:101A80000CB1042C04DD052402E064200449088123
:101A900072B60248048362B610BD00003C0000200C
:101AA000D40000202000002000F801080400FA05FE
:101AB0000CED00E06420044948808880C8800881DB
:101AC00000200249C8817047D40000202000002077
:101AD00010B57148C06C40F001006F49C8640846F9
:101AE000C06C40F00200C8640846006E40F400502C
:101AF00008664FF09040006820F040404FF0904161
:101B000008600846006840F00040086008464068E9
:101B100020F4004048600846806820F0404088601B
:101B20000846806840F0404088600846C06820F061
:101B30004040C8600846406A40F000514FF0904075
:101B400041625648006856490840544908600846B2
:101B500000685449084351490860081D006820F492
:101B60007E70091D0860081D00684D4908404B49FA
:101B700008310860084600684949C9430843474995
:101B800008310860081D00684749084043490C3186
:101B90000860424820300068444908433F492031EA
:101BA00008603E48406A40F0AA013C48416200207B
:101BB0003F490860091D086040F67F40091D086024
:101BC0003B482438006840F0A000394924390860B7
:101BD0000846006840F480700860081D006840F402
:101BE000E000091D086044F6480031490C390860DE
:101BF000081D006846F6480108432D490839086069
:101C0000081D006841F6DD5108432949091F086095
:101C10004FF47A70264910310860091D0860091DCB
:101C2000086040F67E40091D08600020091D08601C
:101C3000084600681F4908431D49203108601020EC
:101C40001B493C3108600020091D086018482030FD
:101C500000681949084316492031086041F288306C
:101C600000F02EFB12481438006820F08000104964
:101C7000143908600E482030006840F480500C4948
:101C8000203108600A482438006840F00100084903
:101C90002439086010BD0000001002400004004814
:101CA0003F00F0FF80AA0A003F00FCFF0040345ACA
:101CB0002434014080080E0000800010FEB54B481F
:101CC00080884B49498910FB01F00290029840003E
:101CD00002904748408946498989401A04B24448DD
:101CE0004089434988814148C08810FB04F0019035
:101CF000019840000190DDE90101084401903D4850
:101D00000088BDF80610401A00B23849088008461D
:101D100080883749C98910FB01F002900298400081
:101D200002903348C0893249098A401A04B23048C7
:101D3000C0892F4908822D48C08810FB04F001900B
:101D4000019840000190DDE9010108440190294813
:101D50004088BDF80610401A00B224494880264841
:101D6000B0F9001047F6FF70FEF772FC0090BDF866
:101D7000000006B2BDF8020005B21C48008810FB46
:101D800006F002900298400002901848408810FB2C
:101D900005F00190019840000190DDE9010108443F
:101DA0000190019800010190BDF806000F490881DB
:101DB00008460089404200B2104908804FF4807004
:101DC0000881032048814FF4005048800846FFF7FF
:101DD000FFF90A4880890849888008460088898870
:101DE000084400B204490880FEBD000054010020F0
:101DF000DE0000200401002010000020600100200F
:101E00002449086800F00401002942D021490968EA
:101E100021F004011F4A116000211E4A1432116092
:101E20001C492831086844F6206188420FD2800896
:101E30002821B0FBF1F040080A2804D9282802D252
:101E4000154AD08025E01921134AD18021E0134999
:101E5000C988491C114AD1800F498988491C0E4AFA
:101E6000918011464988012907D1114689880329A3
:101E700003DB002191803C21118007494988022918
:101E800007D10549097901F0010111B93C21024A44
:101E900011807047102C01400800002064000020D1
:101EA0002DE9F04180464348C08A07285CD2DFE82C
:101EB00000F05B04121F2E3C4C003E48B0F9082095
:101EC0008089404201B2404600F060F93948C48B35
:101ED000058C468C49E03748B0F90A20B0F90C105F
:101EE000404600F053F93348048CC58B468C3CE0E7
:101EF00030484089404202B22E48B0F908104046AE
:101F000000F044F92B48448CC58B068C2DE0294801
:101F1000B0F90C200089404201B2404600F036F989
:101F20002448448C058CC68B1FE02248808940429F
:101F300002B220484089404201B2404600F026F9F2
:101F40001C48048C458CC68B0FE01A48008940421F
:101F500002B21848B0F90A10404600F017F91548C7
:101F6000C48B458C068C00E000BF00BFFF2C01DC59
:101F70004FF48074FF2D01DC4FF48075FF2E01DCDF
:101F80004FF480764FF43867BC4200DD3C46BD42DA
:101F900000DD3D46BE4200DD3E4606488484C584E1
:101FA000068505480460001D0560001D0660BDE84B
:101FB000F0810000040100203434014010B50648CF
:101FC000408840B9012004494880FEF7C5FE024818
:101FD00000880249488010BD6400002020000020D5
:101FE000002004490880C88088800349488001494E
:101FF0004880704764000020200000201A480068D4
:1020000040F48070184908600846006840F00800F5
:1020100008601648C068164908401449C860084658
:10202000C068144908431149C8600846006840F078
:102030008070086000BF0D48006800F00070002844
:10204000F9D00A48806820F00300084988600846F3
:10205000806840F00300886000BF0448806800F09A
:102060000C000C28F9D170470020024000100240FB
:102070000C808C00122801311D480088401C1C492E
:10208000088008460088192829DB002008801948A4
:10209000408820B117484088401E1649488016489D
:1020A000008820B114480088401E13490880104859
:1020B000008920B10E480089401E0D4908810F4853
:1020C000008820B10D480088401E0C4908800C484B
:1020D000008820B10A480088401E09490880094844
:1020E000008820B107480088401E064908807047D4
:1020F00020000020640000203000002000000020AC
:10210000D4000020080000201648006E40F4006053
:10211000144908660020144908602720091D08603A
:102120004FF6FF70091D08600020091D08600E4869
:102130002438006840F4C0700B49243908604FF41B
:10214000714009490C390860B0200749091F08602F
:1021500005482438006840F001000349243908602C
:102160007047000000100240242C014070B5054665
:102170000C46A0B2FEF708FF2046FEF743FF2846B4
:10218000FFF78EFEFEF752FE70BD00007EB50029FF
:1021900000DA0021002A00DA00228BB294B2164D38
:1021A0002D8B854201DA144D288B4FF4C8554543D9
:1021B0000295BDF80A505D430195BDF80A5065438C
:1021C0000095BDF80650C5F54865BDF80260AD1B29
:1021D000C5F34F05084E758435466D8CBDF8026019
:1021E0003544054E358435462D8CBDF806603544A2
:1021F000014EF5837EBD00000401002038B5024683
:10220000244C248A234DED89AC422BDD214C248AB9
:10221000204DED89641BE3031E4CE48993FBF4F429
:1022200021B202FB01F40094009CE41321B240F6B9
:10223000CC44A14200DD2146174CA14200DA2146E0
:1022400054180094009CB4F5004F02DB47F6FF746D
:102250000094009C14F5004F01DA104C0094BDF975
:10226000000015E00B4CE4890A4D2D8AAC420EDDCE
:10227000084C248AE303074CE48993FBF4F421B26D
:1022800002FB01F40094009CE41320B200E010462D
:1022900038BD00003C00002034F3FFFF0080FFFF4A
:1022A0004FF2333003490883002003494860034953
:1022B00048607047040100203401002044010020E0
:1022C00000BF011EA0F10100FBD17047000000001B
:1022D00000000000000000000000000000000000FE
:0C22E000000000000000000000000000F2
:04000005080001D915
:00000001FF
